S12300000000000000496E74726F647563652066696C6173207820636F6C756D6E61730ADC
S123002000496E74726F647563652066696C61733A000A496E74726F6475636520636F6C91
S1230040756D6E61733A000A496E74726F6475636520656C656D656E746F732061206C612D
S1230060206D617472697A000A4D617472697A20636172676164610A000A436F6D70726FDD
S1230080626172207369206573206D6172636F206C61206D617472697A0A000A496E7472AC
S12300A06F647563652066696C612070617261207361626572207375206D6178696D6F3A92
S12300C00010CEFF008E0005BD04908E0021BD0490BD03C3F700018E0032BD0490BD03C34C
S12300E0F70000B60001F600003DFD00038E0047BD0490BD01408E0068BD0490B60001F603
S12301000000BD01688E0079BD0490B60001F60000BD02198E009BBD0490BD03C3F70002E2
S10D0120B60000BD02EE4FB7FF0168
S105FFFE00C13C
S123012A00000000000000000000000000000A4461746F3A2000108EE000FD012CCC000051
S123014AFD012E8E0138BD0490BD039BEDA1FC012EC30001FD012E10B3012C26E639108E76
S123016AE000B70137F701364F5FF60130F101372C36C600F70132F60132F101362C1A5F2E
S123018AC609F7FF00CC0000ECA1BD03DECC0000F601325CF7013220DE5FC60AF7FF00F601
S12301AA01305CF7013020C2C600F70130C600F70132390000000000000000000000000083
S12301CA0A2053554D41204558544552494F522D3E2020000A2053554D4120494E54455272
S12301EA494F522D3E2020000A204573206D617472697A206D6172636F000A204E6F206525
S123020A73206D617472697A206D6172636F00108EE000B701C1F701C23DFD01C3CC0000F9
S123022AFD01C9CC0000ECA1F301BDFD01BDFC01C9C30001FD01C910B301C326E6108EE0C2
S123024A00F601C2585C5C4F31ABF601C1C002F701C55FF601C2C002F701C64F5FC600F663
S123026A01C7F101C52720CB01F701C7F601C8F101C6270FCB01F701C8ECA1F301BFFD01A8
S123028ABF20E9312420D84F5FFC01BDB301BF8E01CABD0490FD01BDBD03DE8E01DEBD042F
S12302AA90FC01BFBD03DEFC01BD10B301BF2E088E0204BD049020068E01F2BD04903900BD
S12302CA00000000000A204D6178696D6F733A20000A46696C612D436F6C756D6E612D3EC1
S12302EA20000000108EE000B702CAF702C9F702EDC001F702CC8E02CFBD0490F602CA58D7
S123030A4FB602CC3DFD02CB31AB4F5FECA4FD02EEECA1FD02CEF602CDF102CA2720CB01FF
S123032AF702CDFC02EE10B302CE250220E3FC02CEFD02EEF602CDC001F702EC20D3C60063
S123034AF702CD4F5FFC02EEBD03DE108EE000FC02CB31AB4F5FF602CDF102CA2730ECA15A
S123036AFD02CEFC02EE10B302CE270AF602CDCB01F702CD20E08E02DBBD04904F5FF60239
S123038AEDBD03DE4F5FF602CDBD03DE20DE390000B6FF028030C6643DFD0399B6FF0280DE
S12303AA30C60A3DF30399FD0399F6FF02C0304FF30399FD0399390000B6FF028030B70312
S12303CAC1B6FF028030B703C2C60AB603C13DFB03C239001F015FF703DD1F1010830320B0
S12303EA250C5F5CF703DD1F108303201F01F603DD58F703DD1F1010830190250EF603DDD6
S123040A5CF703DD1F108301901F01F603DD58F703DD1F10108300C8250EF603DD5CF7034A
S123042ADD1F108300C81F01F603DD58F703DD1F1010830064250EF603DD5CF703DD1F10A1
S123044A8300641F01F603DDCB30F7FF001F101F985F815025035C805058812825035C8051
S123046A2858811425035C801458810A25035C800ACB30F7FF008B30B7FF004F5F8E0000B2
S117048AC609F7FF00393402A6802705B7FF0020F735823917
S9030000FC
