S12300000000000000496E74726F647563652066696C6173207820636F6C756D6E61730ADC
S123002000496E74726F647563652066696C61733A000A496E74726F6475636520636F6C91
S1230040756D6E61733A000A496E74726F6475636520656C656D656E746F732061206C612D
S1230060206D617472697A000A4D617472697A20636172676164610A000A436F6D70726FDD
S1230080626172207369206573206D6172636F206C61206D617472697A0A000A496E7472AC
S12300A06F647563652066696C612070617261207361626572207375206D6178696D6F3A92
S12300C00010CEFF008E0005BD04288E0021BD0428BD035BF700018E0032BD0428BD035B54
S12300E0F70000B60001F600003DFD00038E0047BD0428BD01408E0068BD0428B60001F6D3
S12301000000BD01688E0079BD0428B60001F60000BD02198E009BBD0428BD035BB600005D
S10D0120F70002BD02DB4FB7FF0138
S105FFFE00C13C
S123012A00000000000000000000000000000A4461746F3A2000108EE000FD012CCC000051
S123014AFD012E8E0138BD0428BD0333EDA1FC012EC30001FD012E10B3012C26E639108E46
S123016AE000B70137F701364F5FF60130F101372C36C600F70132F60132F101362C1A5F2E
S123018AC609F7FF00CC0000ECA1BD0376CC0000F601325CF7013220DE5FC60AF7FF00F669
S12301AA01305CF7013020C2C600F70130C600F70132390000000000000000000000000083
S12301CA0A2053554D41204558544552494F522D3E2020000A2053554D4120494E54455272
S12301EA494F522D3E2020000A204573206D617472697A206D6172636F000A204E6F206525
S123020A73206D617472697A206D6172636F00108EE000B701C1F701C23DFD01C3CC0000F9
S123022AFD01C9CC0000ECA1F301BDFD01BDFC01C9C30001FD01C910B301C326E6108EE0C2
S123024A00F601C2585C5C4F31ABF601C1C002F701C55FF601C2C002F701C64F5FC600F663
S123026A01C7F101C52720CB01F701C7F601C8F101C6270FCB01F701C8ECA1F301BFFD01A8
S123028ABF20E9312420D84F5FFC01BDB301BF8E01CABD0428FD01BDBD03768E01DEBD04FF
S12302AA28FC01BFBD0376FC01BD10B301BF2E088E0204BD042820068E01F2BD042839005D
S12302CA00000000000A204D6178696D6F733A2000108EE000F702C9C001F702CCB702CA65
S12302EA8E02CFBD0428F602CA58B602CC3D4FFD02CB31AB4F5FECA4FD02DBECA1FD02CE66
S123030AF602CDF102CA2718CB01F702CDFC02DB10B302CE220220E3FC02CEFD02DB20DB48
S123032AFC02DBBD0376390000B6FF028030C6643DFD0331B6FF028030C60A3DF30331FDD0
S123034A0331F6FF02C0304FF30331FD0331390000B6FF028030B70359B6FF028030B703F9
S123036A5AC60AB603593DFB035A39001F015FF703751F1010830320250C5F5CF703751F18
S123038A108303201F01F6037558F703751F1010830190250EF603755CF703751F108301D2
S12303AA901F01F6037558F703751F10108300C8250EF603755CF703751F108300C81F01BA
S12303CAF6037558F703751F1010830064250EF603755CF703751F108300641F01F60375A4
S12303EACB30F7FF001F101F985F815025035C805058812825035C802858811425035C8076
S123040A1458810A25035C800ACB30F7FF008B30B7FF004F5F8E0000C609F7FF00393402F7
S10F042AA6802705B7FF0020F7358239B3
S9030000FC
