S12300000000000000496E74726F647563652066696C6173207820636F6C756D6E61730ADC
S123002000496E74726F647563652066696C61733A000A496E74726F6475636520636F6C91
S1230040756D6E61733A000A496E74726F6475636520656C656D656E746F732061206C612D
S1230060206D617472697A000A4D617472697A20636172676164610A000A436F6D70726FDD
S1230080626172207369206573206D6172636F206C61206D617472697A0A000A496E7472AC
S12300A06F647563652066696C612070617261207361626572207375206D6178696D6F3A92
S12300C00010CEFF008E0005BD03FF8E0021BD03FFBD0332F700018E0032BD03FFBD033224
S12300E0F70000B60001F600003DFD00038E0047BD03FFBD01408E0068BD03FFB60001F627
S12301000000BD01688E0079BD03FFB60001F60000BD02198E009BBD03FFBD0332B60000DA
S10D0120F70002BD02CE4FB7FF0145
S105FFFE00C13C
S123012A00000000000000000000000000000A4461746F3A2000108EE000FD012CCC000051
S123014AFD012E8E0138BD03FFBD030AEDA1FC012EC30001FD012E10B3012C26E639108E99
S123016AE000B70137F701364F5FF60130F101372C36C600F70132F60132F101362C1A5F2E
S123018AC609F7FF00CC0000ECA1BD034DCC0000F601325CF7013220DE5FC60AF7FF00F692
S12301AA01305CF7013020C2C600F70130C600F70132390000000000000000000000000083
S12301CA0A2053554D41204558544552494F522D3E2020000A2053554D4120494E54455272
S12301EA494F522D3E2020000A204573206D617472697A206D6172636F000A204E6F206525
S123020A73206D617472697A206D6172636F00108EE000B701C1F701C23DFD01C3CC0000F9
S123022AFD01C9CC0000ECA1F301BDFD01BDFC01C9C30001FD01C910B301C326E6108EE0C2
S123024A00F601C2585C5C4F31ABF601C1C002F701C55FF601C2C002F701C64F5FC600F663
S123026A01C7F101C52720CB01F701C7F601C8F101C6270FCB01F701C8ECA1F301BFFD01A8
S123028ABF20E9312420D84F5FFC01BDB301BF8E01CABD03FFFD01BDBD034D8E01DEBD0353
S12302AAFFFC01BFBD034DFC01BD10B301BF2E088E0204BD03FF20068E01F2BD03FF390003
S12302CA00000000108EE000F702C9C001F702CCB702CAF602CA58B602CC3D4FFD02CB31A2
S12302EAAB4F5FECA1FD02CEF602CDF102CA270DCB01F702CDFC02CEBD034D20E6390000DD
S123030AB6FF028030C6643DFD0308B6FF028030C60A3DF30308FD0308F6FF02C0304FF356
S123032A0308FD0308390000B6FF028030B70330B6FF028030B70331C60AB603303DFB03CC
S123034A3139001F015FF7034C1F1010830320250C5F5CF7034C1F108303201F01F6034C0F
S123036A58F7034C1F1010830190250EF6034C5CF7034C1F108301901F01F6034C58F7036A
S123038A4C1F10108300C8250EF6034C5CF7034C1F108300C81F01F6034C58F7034C1F10B3
S12303AA10830064250EF6034C5CF7034C1F108300641F01F6034CCB30F7FF001F101F98CC
S12303CA5F815025035C805058812825035C802858811425035C801458810A25035C800A68
S12303EACB30F7FF008B30B7FF004F5F8E0000C609F7FF00393402A6802705B7FF0020F7FE
S106040A358239FB
S9030000FC
