S123000000000000496E74726F647563652066696C6173207820636F6C756D6E61730A00DC
S1230020496E74726F647563652066696C61733A000A496E74726F6475636520636F6C751C
S12300406D6E61733A000A496E74726F6475636520656C656D656E746F732061206C612082
S12300606D617472697A000A4D617472697A20636172676164610A000A436F6D70726F629B
S12300806172207369206573206D6172636F206C61206D617472697A0A0010CEFF008E004A
S12300A004BD01B28E0020BD01B2BD011BF700018E0031BD01B2BD011BF70000B60001F62D
S12300C000003DFD00028E0046BD01B2BD01D68E0067BD01B2B60001F60000BD01FE8E00AC
S11400E078BD01B2B60001F60000BD02844FB7FF012D
S105FFFE009A63
S12300F10000B6FF028030C6643DFD00F1B6FF028030C60A3DF300F1FD00F1F6FF02C03002
S12301114FF300F1FD00F1390000B6FF028030B70119B6FF028030B7011AC60AB601193D22
S1230131FB011A3934308E0000108E000083006425071E015C1E0120F41E015D26071E0241
S12301515D1E02270ACB30F7FF001E025C1E021E01C300641E01CC00001E0183000A250746
S12301711E015C1E0120F41E015D26071E025D1E02270ACB30F7FF001E025C1E021E01C3D6
S1230191000A1E01CC00001E0183000125071E015C1E0120F41E01CB30F7FF001E01353044
S12301B1393402A6802705B7FF0020F735823900000000000000000000000000000A4461FD
S12301D1746F3A2000108EE000FD01C2CC0000FD01C48E01CEBD01B2BD00F3EDA1FC01C435
S12301F1C30001FD01C410B301C226E639108EE000B701CDF701CC4F5FF601C6F101CD2C7C
S123021136C600F701C8F601C8F101CC2C1A5FC609F7FF00CC0000ECA1BD0135CC0000F618
S123023101C85CF701C820DE5FC60AF7FF00F601C65CF701C620C2C600F701C6C600F701A6
S1230251C839000000000000000000000A4573206D617472697A204D6172636F0A000A4E9B
S12302716F206573206D617472697A204D6172636F0A00108EE000B70258F702574AB7024D
S1230291595AF7025A4F5FF6025BF102582C49F6025CF102572C2CB6025B8100272FB102EF
S12302B159272AC1002726F1025A2721CC0000ECA1F30255FD0255CC0000F6025C5CF70270
S12302D15C20CC5FF6025B5CF7025B20BACC0000ECA1F30253FD0253F60253BD0135F6025C
S11C02F155BD0135B6025381552E078E025DBD01B2398E026FBD01B23954
S9030000FC
