S123000000000000000000496E74726F647563652066696C6173207820636F6C756D6E6159
S1230020730A00496E74726F647563652066696C61733A000A496E74726F647563652063EF
S12300406F6C756D6E61733A000A496E74726F6475636520656C656D656E746F732061201F
S12300606C61206D617472697A000A4D617472697A20636172676164610A000A436F6D70F1
S1230080726F626172207369206573206D6172636F206C61206D617472697A0A000A496EB1
S12300A074726F647563652066696C612070617261207361626572207375206D6178696D55
S12300C06F3A0010CEFF008E0007BD03728E0023BD0372BD02A5F700018E0034BD0372BDDF
S12300E002A5F70000B60001F600003DFD00038E0049BD0372BD0138FD00058E006ABD03BB
S123010072B60001F60000BD01668E007BBD0372B60001F60000FC0005BD01CB4FB7FF0120
S105FFFE00C33A
S1230120000000000000000000000000000000000A4461746F3A2000108EE000FD0122CC65
S12301400000FD01248E0130BD0372BD027DEDA1F3012EFD012EFC0124C30001FD01241059
S1230160B3012226E039108EE000B7012DF7012C4F5FF60126F1012D2C36C600F70128F6B7
S12301800128F1012C2C1A5FC609F7FF00CC0000ECA1BD02C0CC0000F601285CF70128204B
S12301A0DE5FC60AF7FF00F601265CF7012620C2C600F70126C600F70128FC012EBD02C04B
S12301C03900000000000000000000FD01C1B701C54FF701C6108EE000F601C6585C5C4FFF
S12301E031ABF601C55A5AF701C75FF601C65A5AF701C8F601C9F101C72C39C600F701CAFA
S1230200F601CAF101C82C17CC0000ECA1F301C3FD01C3BD02C0F601CA5CFD01CA20E14F97
S1230220C600F701CAF601C95CF701C9ECA1ECA14F5F20BF4F5FFC01C1B301C3FD01C1BD4F
S123024002C0FC01C3BD02C039000000000000108EE000F70249B7024AB6024AF602493D1D
S1230260FD024B4F5FC600F7024CF6024CF1024A2706FC024BFD024D4F5F390000B6FF0296
S12302808030C6643DFD027BB6FF028030C60A3DF3027BFD027BF6FF02C0304FF3027BFDC8
S12302A0027B390000B6FF028030B702A3B6FF028030B702A4C60AB602A33DFB02A43900BB
S12302C01F015FF702BF1F1010830320250C5F5CF702BF1F108303201F01F602BF58F7025D
S12302E0BF1F1010830190250EF602BF5CF702BF1F108301901F01F602BF58F702BF1F1091
S1230300108300C8250EF602BF5CF702BF1F108300C81F01F602BF58F702BF1F101083005D
S123032064250EF602BF5CF702BF1F108300641F01F602BFCB30F7FF001F101F985F815063
S123034025035C805058812825035C802858811425035C801458810A25035C800ACB30F730
S1230360FF008B30B7FF004F5F8E0000C609F7FF00393402A6802705B7FF0020F73582398A
S9030000FC
